{
  "address": "0x857bcdD5b750cB1c73c0B822Db7087200Cdc1ab6",
  "abi": [
    {
      "inputs": [],
      "stateMutability": "nonpayable",
      "type": "constructor"
    },
    {
      "inputs": [
        {
          "internalType": "address",
          "name": "a",
          "type": "address"
        }
      ],
      "name": "amountInPoolA",
      "outputs": [
        {
          "internalType": "uint256",
          "name": "",
          "type": "uint256"
        }
      ],
      "stateMutability": "view",
      "type": "function"
    },
    {
      "inputs": [
        {
          "internalType": "uint256",
          "name": "amount",
          "type": "uint256"
        }
      ],
      "name": "depositToA",
      "outputs": [],
      "stateMutability": "payable",
      "type": "function"
    },
    {
      "inputs": [
        {
          "internalType": "uint256",
          "name": "amount",
          "type": "uint256"
        }
      ],
      "name": "depositToB",
      "outputs": [],
      "stateMutability": "payable",
      "type": "function"
    },
    {
      "inputs": [],
      "name": "getBalance",
      "outputs": [
        {
          "internalType": "uint256",
          "name": "",
          "type": "uint256"
        }
      ],
      "stateMutability": "view",
      "type": "function"
    },
    {
      "inputs": [],
      "name": "getPoolA",
      "outputs": [
        {
          "internalType": "uint256",
          "name": "",
          "type": "uint256"
        }
      ],
      "stateMutability": "view",
      "type": "function"
    },
    {
      "inputs": [],
      "name": "getPoolB",
      "outputs": [
        {
          "internalType": "uint256",
          "name": "",
          "type": "uint256"
        }
      ],
      "stateMutability": "view",
      "type": "function"
    },
    {
      "inputs": [
        {
          "internalType": "address",
          "name": "",
          "type": "address"
        }
      ],
      "name": "poolBalancesA",
      "outputs": [
        {
          "internalType": "uint256",
          "name": "",
          "type": "uint256"
        }
      ],
      "stateMutability": "view",
      "type": "function"
    },
    {
      "inputs": [
        {
          "internalType": "address",
          "name": "",
          "type": "address"
        }
      ],
      "name": "poolBalancesB",
      "outputs": [
        {
          "internalType": "uint256",
          "name": "",
          "type": "uint256"
        }
      ],
      "stateMutability": "view",
      "type": "function"
    },
    {
      "inputs": [
        {
          "internalType": "uint256",
          "name": "amount",
          "type": "uint256"
        }
      ],
      "name": "withdrawToOwner",
      "outputs": [],
      "stateMutability": "nonpayable",
      "type": "function"
    }
  ],
  "transactionHash": "0x11a6c65b4e4faa30fd7a5854fe278ee03cd4f7f58bc5ec1cd9a723262ae5639a",
  "args": [],
  "numDeployments": 1,
  "solcInputHash": "203edf3831009e42675014229df72945",
  "bytecode": "0x608060405234801561001057600080fd5b5033600260006101000a81548173ffffffffffffffffffffffffffffffffffffffff021916908373ffffffffffffffffffffffffffffffffffffffff160217905550610acc806100616000396000f3fe6080604052600436106100865760003560e01c80637717ccbe116100595780637717ccbe14610138578063a71c28d814610163578063bd07827b1461018e578063d81793e9146101aa578063f0001a89146101e757610086565b806312065fe01461008b578063195b404e146100b65780633dc8231e146100f35780636a5bbc1d1461010f575b600080fd5b34801561009757600080fd5b506100a0610224565b6040516100ad919061093c565b60405180910390f35b3480156100c257600080fd5b506100dd60048036038101906100d8919061065a565b61022c565b6040516100ea919061093c565b60405180910390f35b61010d60048036038101906101089190610683565b610244565b005b34801561011b57600080fd5b5061013660048036038101906101319190610683565b6102f7565b005b34801561014457600080fd5b5061014d610508565b60405161015a919061093c565b60405180910390f35b34801561016f57600080fd5b50610178610512565b604051610185919061093c565b60405180910390f35b6101a860048036038101906101a39190610683565b61051b565b005b3480156101b657600080fd5b506101d160048036038101906101cc919061065a565b6105cf565b6040516101de919061093c565b60405180910390f35b3480156101f357600080fd5b5061020e6004803603810190610209919061065a565b610618565b60405161021b919061093c565b60405180910390f35b600047905090565b60036020528060005260406000206000915090505481565b348114610286576040517f08c379a000000000000000000000000000000000000000000000000000000000815260040161027d9061089c565b60405180910390fd5b80600360003373ffffffffffffffffffffffffffffffffffffffff1673ffffffffffffffffffffffffffffffffffffffff16815260200190815260200160002060008282546102d59190610973565b92505081905550806000808282546102ed9190610973565b9250508190555050565b600260009054906101000a900473ffffffffffffffffffffffffffffffffffffffff1673ffffffffffffffffffffffffffffffffffffffff163373ffffffffffffffffffffffffffffffffffffffff1614610387576040517f08c379a000000000000000000000000000000000000000000000000000000000815260040161037e906108bc565b60405180910390fd5b476001546000546103989190610973565b11156103d9576040517f08c379a00000000000000000000000000000000000000000000000000000000081526004016103d0906108fc565b60405180910390fd5b6001476103e691906109c9565b8110610427576040517f08c379a000000000000000000000000000000000000000000000000000000000815260040161041e9061091c565b60405180910390fd5b6000600260009054906101000a900473ffffffffffffffffffffffffffffffffffffffff1673ffffffffffffffffffffffffffffffffffffffff168260405161046f90610887565b60006040518083038185875af1925050503d80600081146104ac576040519150601f19603f3d011682016040523d82523d6000602084013e6104b1565b606091505b50509050806104f5576040517f08c379a00000000000000000000000000000000000000000000000000000000081526004016104ec906108dc565b60405180910390fd5b6000808190555060006001819055505050565b6000600154905090565b60008054905090565b34811461055d576040517f08c379a00000000000000000000000000000000000000000000000000000000081526004016105549061089c565b60405180910390fd5b80600460003373ffffffffffffffffffffffffffffffffffffffff1673ffffffffffffffffffffffffffffffffffffffff16815260200190815260200160002060008282546105ac9190610973565b9250508190555080600160008282546105c59190610973565b9250508190555050565b6000600360008373ffffffffffffffffffffffffffffffffffffffff1673ffffffffffffffffffffffffffffffffffffffff168152602001908152602001600020549050919050565b60046020528060005260406000206000915090505481565b60008135905061063f81610a68565b92915050565b60008135905061065481610a7f565b92915050565b60006020828403121561066c57600080fd5b600061067a84828501610630565b91505092915050565b60006020828403121561069557600080fd5b60006106a384828501610645565b91505092915050565b60006106b9602d83610962565b91507f416d6f756e74206465706f736974656420646f6573206e6f7420657175616c2060008301527f6d6573736167652076616c7565000000000000000000000000000000000000006020830152604082019050919050565b600061071f602183610962565b91507f4f6e6c79206f776e65722063616e2063616c6c20746869732066756e6374696f60008301527f6e000000000000000000000000000000000000000000000000000000000000006020830152604082019050919050565b6000610785601783610962565b91507f7472616e7365722063616c6c20676f6e652077726f6e670000000000000000006000830152602082019050919050565b60006107c5602183610962565b91507f536f6d657468696e672068617320676f6e65207465727269626c792077726f6e60008301527f67000000000000000000000000000000000000000000000000000000000000006020830152604082019050919050565b600061082b600083610957565b9150600082019050919050565b6000610845601883610962565b91507f4e65656420657468657220666f72206761732063616c6c7300000000000000006000830152602082019050919050565b61088181610a2f565b82525050565b60006108928261081e565b9150819050919050565b600060208201905081810360008301526108b5816106ac565b9050919050565b600060208201905081810360008301526108d581610712565b9050919050565b600060208201905081810360008301526108f581610778565b9050919050565b60006020820190508181036000830152610915816107b8565b9050919050565b6000602082019050818103600083015261093581610838565b9050919050565b60006020820190506109516000830184610878565b92915050565b600081905092915050565b600082825260208201905092915050565b600061097e82610a2f565b915061098983610a2f565b9250827fffffffffffffffffffffffffffffffffffffffffffffffffffffffffffffffff038211156109be576109bd610a39565b5b828201905092915050565b60006109d482610a2f565b91506109df83610a2f565b9250828210156109f2576109f1610a39565b5b828203905092915050565b6000610a0882610a0f565b9050919050565b600073ffffffffffffffffffffffffffffffffffffffff82169050919050565b6000819050919050565b7f4e487b7100000000000000000000000000000000000000000000000000000000600052601160045260246000fd5b610a71816109fd565b8114610a7c57600080fd5b50565b610a8881610a2f565b8114610a9357600080fd5b5056fea264697066735822122033ea6935c469426ab0f984c46d79f67f9869b86596aaece6698a4beb2c41e94064736f6c63430008000033",
  "devdoc": {
    "kind": "dev",
    "methods": {},
    "version": 1
  },
  "userdoc": {
    "kind": "user",
    "methods": {},
    "version": 1
  },
  "storageLayout": {
    "storage": [
      {
        "astId": 3,
        "contract": "contracts/BettingPool.sol:BettingPool",
        "label": "poolA",
        "offset": 0,
        "slot": "0",
        "type": "t_uint256"
      },
      {
        "astId": 5,
        "contract": "contracts/BettingPool.sol:BettingPool",
        "label": "poolB",
        "offset": 0,
        "slot": "1",
        "type": "t_uint256"
      },
      {
        "astId": 7,
        "contract": "contracts/BettingPool.sol:BettingPool",
        "label": "owner",
        "offset": 0,
        "slot": "2",
        "type": "t_address"
      },
      {
        "astId": 11,
        "contract": "contracts/BettingPool.sol:BettingPool",
        "label": "poolBalancesA",
        "offset": 0,
        "slot": "3",
        "type": "t_mapping(t_address,t_uint256)"
      },
      {
        "astId": 15,
        "contract": "contracts/BettingPool.sol:BettingPool",
        "label": "poolBalancesB",
        "offset": 0,
        "slot": "4",
        "type": "t_mapping(t_address,t_uint256)"
      }
    ],
    "types": {
      "t_address": {
        "encoding": "inplace",
        "label": "address",
        "numberOfBytes": "20"
      },
      "t_mapping(t_address,t_uint256)": {
        "encoding": "mapping",
        "key": "t_address",
        "label": "mapping(address => uint256)",
        "numberOfBytes": "32",
        "value": "t_uint256"
      },
      "t_uint256": {
        "encoding": "inplace",
        "label": "uint256",
        "numberOfBytes": "32"
      }
    }
  }
}