{
  "_format": "hh-sol-artifact-1",
  "contractName": "BettingPool",
  "sourceName": "contracts/BettingPool.sol",
  "abi": [
    {
      "inputs": [],
      "stateMutability": "nonpayable",
      "type": "constructor"
    },
    {
      "inputs": [
        {
          "internalType": "address",
          "name": "a",
          "type": "address"
        }
      ],
      "name": "amountInPoolA",
      "outputs": [
        {
          "internalType": "uint256",
          "name": "",
          "type": "uint256"
        }
      ],
      "stateMutability": "view",
      "type": "function"
    },
    {
      "inputs": [
        {
          "internalType": "uint256",
          "name": "amount",
          "type": "uint256"
        }
      ],
      "name": "depositToA",
      "outputs": [],
      "stateMutability": "payable",
      "type": "function"
    },
    {
      "inputs": [
        {
          "internalType": "uint256",
          "name": "amount",
          "type": "uint256"
        }
      ],
      "name": "depositToB",
      "outputs": [],
      "stateMutability": "payable",
      "type": "function"
    },
    {
      "inputs": [],
      "name": "getBalance",
      "outputs": [
        {
          "internalType": "uint256",
          "name": "",
          "type": "uint256"
        }
      ],
      "stateMutability": "view",
      "type": "function"
    },
    {
      "inputs": [],
      "name": "getPoolA",
      "outputs": [
        {
          "internalType": "uint256",
          "name": "",
          "type": "uint256"
        }
      ],
      "stateMutability": "view",
      "type": "function"
    },
    {
      "inputs": [],
      "name": "getPoolB",
      "outputs": [
        {
          "internalType": "uint256",
          "name": "",
          "type": "uint256"
        }
      ],
      "stateMutability": "view",
      "type": "function"
    },
    {
      "inputs": [
        {
          "internalType": "address",
          "name": "",
          "type": "address"
        }
      ],
      "name": "poolBalancesA",
      "outputs": [
        {
          "internalType": "uint256",
          "name": "",
          "type": "uint256"
        }
      ],
      "stateMutability": "view",
      "type": "function"
    },
    {
      "inputs": [
        {
          "internalType": "address",
          "name": "",
          "type": "address"
        }
      ],
      "name": "poolBalancesB",
      "outputs": [
        {
          "internalType": "uint256",
          "name": "",
          "type": "uint256"
        }
      ],
      "stateMutability": "view",
      "type": "function"
    },
    {
      "inputs": [
        {
          "internalType": "uint256",
          "name": "amount",
          "type": "uint256"
        }
      ],
      "name": "withdrawToOwner",
      "outputs": [],
      "stateMutability": "nonpayable",
      "type": "function"
    },
    {
      "stateMutability": "payable",
      "type": "receive"
    }
  ],
  "bytecode": "0x608060405234801561001057600080fd5b5033600260006101000a81548173ffffffffffffffffffffffffffffffffffffffff021916908373ffffffffffffffffffffffffffffffffffffffff160217905550610ad7806100616000396000f3fe60806040526004361061008a5760003560e01c80637717ccbe116100595780637717ccbe14610143578063a71c28d81461016e578063bd07827b14610199578063d81793e9146101b5578063f0001a89146101f257610091565b806312065fe014610096578063195b404e146100c15780633dc8231e146100fe5780636a5bbc1d1461011a57610091565b3661009157005b600080fd5b3480156100a257600080fd5b506100ab61022f565b6040516100b89190610947565b60405180910390f35b3480156100cd57600080fd5b506100e860048036038101906100e39190610665565b610237565b6040516100f59190610947565b60405180910390f35b6101186004803603810190610113919061068e565b61024f565b005b34801561012657600080fd5b50610141600480360381019061013c919061068e565b610302565b005b34801561014f57600080fd5b50610158610513565b6040516101659190610947565b60405180910390f35b34801561017a57600080fd5b5061018361051d565b6040516101909190610947565b60405180910390f35b6101b360048036038101906101ae919061068e565b610526565b005b3480156101c157600080fd5b506101dc60048036038101906101d79190610665565b6105da565b6040516101e99190610947565b60405180910390f35b3480156101fe57600080fd5b5061021960048036038101906102149190610665565b610623565b6040516102269190610947565b60405180910390f35b600047905090565b60036020528060005260406000206000915090505481565b348114610291576040517f08c379a0000000000000000000000000000000000000000000000000000000008152600401610288906108a7565b60405180910390fd5b80600360003373ffffffffffffffffffffffffffffffffffffffff1673ffffffffffffffffffffffffffffffffffffffff16815260200190815260200160002060008282546102e0919061097e565b92505081905550806000808282546102f8919061097e565b9250508190555050565b600260009054906101000a900473ffffffffffffffffffffffffffffffffffffffff1673ffffffffffffffffffffffffffffffffffffffff163373ffffffffffffffffffffffffffffffffffffffff1614610392576040517f08c379a0000000000000000000000000000000000000000000000000000000008152600401610389906108c7565b60405180910390fd5b476001546000546103a3919061097e565b11156103e4576040517f08c379a00000000000000000000000000000000000000000000000000000000081526004016103db90610907565b60405180910390fd5b6001476103f191906109d4565b8110610432576040517f08c379a000000000000000000000000000000000000000000000000000000000815260040161042990610927565b60405180910390fd5b6000600260009054906101000a900473ffffffffffffffffffffffffffffffffffffffff1673ffffffffffffffffffffffffffffffffffffffff168260405161047a90610892565b60006040518083038185875af1925050503d80600081146104b7576040519150601f19603f3d011682016040523d82523d6000602084013e6104bc565b606091505b5050905080610500576040517f08c379a00000000000000000000000000000000000000000000000000000000081526004016104f7906108e7565b60405180910390fd5b6000808190555060006001819055505050565b6000600154905090565b60008054905090565b348114610568576040517f08c379a000000000000000000000000000000000000000000000000000000000815260040161055f906108a7565b60405180910390fd5b80600460003373ffffffffffffffffffffffffffffffffffffffff1673ffffffffffffffffffffffffffffffffffffffff16815260200190815260200160002060008282546105b7919061097e565b9250508190555080600160008282546105d0919061097e565b9250508190555050565b6000600360008373ffffffffffffffffffffffffffffffffffffffff1673ffffffffffffffffffffffffffffffffffffffff168152602001908152602001600020549050919050565b60046020528060005260406000206000915090505481565b60008135905061064a81610a73565b92915050565b60008135905061065f81610a8a565b92915050565b60006020828403121561067757600080fd5b60006106858482850161063b565b91505092915050565b6000602082840312156106a057600080fd5b60006106ae84828501610650565b91505092915050565b60006106c4602d8361096d565b91507f416d6f756e74206465706f736974656420646f6573206e6f7420657175616c2060008301527f6d6573736167652076616c7565000000000000000000000000000000000000006020830152604082019050919050565b600061072a60218361096d565b91507f4f6e6c79206f776e65722063616e2063616c6c20746869732066756e6374696f60008301527f6e000000000000000000000000000000000000000000000000000000000000006020830152604082019050919050565b600061079060178361096d565b91507f7472616e7365722063616c6c20676f6e652077726f6e670000000000000000006000830152602082019050919050565b60006107d060218361096d565b91507f536f6d657468696e672068617320676f6e65207465727269626c792077726f6e60008301527f67000000000000000000000000000000000000000000000000000000000000006020830152604082019050919050565b6000610836600083610962565b9150600082019050919050565b600061085060188361096d565b91507f4e65656420657468657220666f72206761732063616c6c7300000000000000006000830152602082019050919050565b61088c81610a3a565b82525050565b600061089d82610829565b9150819050919050565b600060208201905081810360008301526108c0816106b7565b9050919050565b600060208201905081810360008301526108e08161071d565b9050919050565b6000602082019050818103600083015261090081610783565b9050919050565b60006020820190508181036000830152610920816107c3565b9050919050565b6000602082019050818103600083015261094081610843565b9050919050565b600060208201905061095c6000830184610883565b92915050565b600081905092915050565b600082825260208201905092915050565b600061098982610a3a565b915061099483610a3a565b9250827fffffffffffffffffffffffffffffffffffffffffffffffffffffffffffffffff038211156109c9576109c8610a44565b5b828201905092915050565b60006109df82610a3a565b91506109ea83610a3a565b9250828210156109fd576109fc610a44565b5b828203905092915050565b6000610a1382610a1a565b9050919050565b600073ffffffffffffffffffffffffffffffffffffffff82169050919050565b6000819050919050565b7f4e487b7100000000000000000000000000000000000000000000000000000000600052601160045260246000fd5b610a7c81610a08565b8114610a8757600080fd5b50565b610a9381610a3a565b8114610a9e57600080fd5b5056fea2646970667358221220d34b26468a8a495e6208d7958d437f6610e0788458c8e8037b47d0a6c810dd8464736f6c63430008000033",
  "linkReferences": {},
  "deployedLinkReferences": {}
}